:020000021000EC
:10C0000000000220BDC20100E5C20100E7C201003C
:10C01000E9C20100EBC20100EDC201000000000016
:10C02000000000000000000000000000EFC201005E
:10C03000F1C2010000000000F3C20100F5C20100DE
:10C04000F7C20100F7C20100F7C20100F7C2010008
:10C05000F7C20100F7C20100F7C20100F7C20100F8
:10C06000F7C20100F7C20100F7C20100F7C20100E8
:10C07000F7C20100F7C20100F7C20100F7C20100D8
:10C08000F7C20100F7C20100F7C20100F7C20100C8
:10C09000F7C20100F7C20100F7C20100F7C20100B8
:10C0A000F7C20100F7C20100F7C20100F7C20100A8
:10C0B000F7C20100F7C2010000000000000000000C
:10C0C000F7C20100F7C20100F7C20100F7C2010088
:10C0D000F7C20100F7C20100F7C20100F7C2010078
:10C0E000F7C20100F7C20100F7C201000000000022
:10C0F00000000000F7C2010000000000F7C20100CC
:10C10000000000000000000000000000000000002F
:10C11000000000000000000000000000000000001F
:10C12000000000000000000000000000000000000F
:10C1300000000000000000000000000000000000FF
:10C1400000000000000000000000000000000000EF
:10C1500000000000000000000000000000000000DF
:10C1600000000000000000000000000000000000CF
:10C1700000000000000000000000000000000000BF
:10C1800000000000000000000000000000000000AF
:10C19000000000000000000000000000000000009F
:10C1A000000000000000000000000000000000008F
:10C1B000000000000000000000000000000000007F
:10C1C000000000000000000000000000000000006F
:10C1D000000000000000000000000000000000005F
:10C1E000000000000000000000000000000000004F
:10C1F000000000000000000000000000000000003F
:10C2000010B5054C237833B9044B13B10448AFF390
:10C2100000800123237010BD0412002000000000E4
:10C220009CC7010008B5034B1BB103490348AFF39A
:10C23000008008BD00000000081200209CC701001B
:10C24000A3F5803A704700BF174B002B08BF134B74
:10C250009D46FFF7F5FF00218B460F461348144A11
:10C26000121A00F075FA0E4B002B00D098470D4BB8
:10C27000002B00D098470020002104000D000D483D
:10C28000002802D00C48AFF3008000F03DFA2000F7
:10C29000290000F0B5F800F023FA00BF0000080004
:10C2A0000000000000000000000002200412002036
:10C2B0002012002000000000000000000649074A8C
:10C2C000074B9B1A03DD043BC858D050FBDC00F041
:10C2D000DDF8FFF7B9FF0000A8C7010098110020A2
:10C2E00004120020FEE7FEE7FEE7FEE7FEE7FEE7BA
:10C2F000FEE7FEE7FEE7FEE70A4B185C1F288ABF51
:10C3000009494FF0A04100F01F00D1F80435012287
:10C31000824022EA03001340C1F80805C1F80C3539
:10C32000704700BF7CC7010000030050C30706D45C
:10C33000830742BF2E4B0C22C3F81827704770B4F6
:10C340004FF08043D3F84036DA0722D44FF0A043B1
:10C350002749032240264FF480754FF40074C3F838
:10C360001827C3F82027C1F82427C3F83027C3F8BB
:10C3700008654FF48052C3F80855C1F80845810795
:10C38000C3F8082503D51A4B0C22C3F8182770BC34
:10C3900070474FF01023D3F8043303F00703072B43
:10C3A000D4D1144B0122C3F80425D3F80024002A69
:10C3B000FBD04FF010210020D1F804230D4C22F0C7
:10C3C000070242F00402C1F80423C3F80405D4F8BC
:10C3D0000034002BFBD0BFF34F8F0749074BCA68CF
:10C3E00002F4E0621343CB60BFF34F8F00BFFDE761
:10C3F0000003005000E0014000ED00E00400FA05F9
:10C4000070B50120204DFFF791FF45F001050C2686
:10C410000020FFF771FF4FF4FA744FF47A40A847F9
:10C42000013CFAD1013EF3D10A260120FFF764FF57
:10C430004FF4FA744FF47A40A847013CFAD1013E18
:10C44000F3D108260220FFF757FF4FF4FA744FF498
:10C450007A40A847013CFAD1013EF3D10320FFF70F
:10C460004BFF4FF4FA744FF47A40A847013CFAD1DD
:10C470000320FFF741FF4FF4FA744FF47A40A847C6
:10C48000013CFAD1C3E700BF80C7010010B4814B63
:10C490001B68082B21D0804AD2F8883043F47003FF
:10C4A000C2F88830BFF34F8FBFF36F8F794B1B6893
:10C4B000082B00F0AA804FF01023D3F80022002AA6
:10C4C000C0F2B680D3F80432002BC0F2B180734BB7
:10C4D000734A1A605DF8044B70474FF080414FF08B
:10C4E00080520020C1F80C016E4BC1F81001C1F858
:10C4F0003805D2F80414C3F82015D2F80814C3F88C
:10C500002415D2F80C14C3F82815D2F81014C3F867
:10C510002C15D2F81414C3F83015D2F81814C3F837
:10C520003415D2F81C14C3F84015D2F82014C3F8FF
:10C530004415D2F82414C3F84815D2F82814C3F8C7
:10C540004C15D2F82C14C3F85015D2F83014C3F897
:10C550005415D2F83414C3F86015D2F83814C3F85F
:10C560006415D2F83C04C3F868054F49D2F840047A
:10C57000C3F86C050968D2F84424C3F8702505296E
:10C5800037D84A4B5B5C13B1494B4A4A1A604A4B55
:10C590005B5C63B13F4B49491B68434AFB20C1F8D0
:10C5A0001805082B11687FF476AF052921D8444B74
:10C5B0005B5C93B14348444B364C02681B6824686B
:10C5C000394922F00F0203F00F031343082C0968C6
:10C5D00003607FF460AF05290BD83C4B5B5C43B133
:10C5E0002C4B3B4A1B684FF40071082B11607FF401
:10C5F00052AF4FF08043D3F80024D2077FF54BAF02
:10C600006FF00102C3F8002445E7274B1B68052B98
:10C6100008D94FF010224FF08043D2F80822C3F817
:10C62000582548E72B4AD35C002B3FF444AFF0E792
:10C63000294A0123C2F80435D2F80034002BFBD07C
:10C640004FF010231221244AC3F80012D2F800340C
:10C65000002BFBD04FF0102312211F4AC3F8041205
:10C66000D2F80034002BFBD000231B49C2F804355C
:10C67000D1F80034002BFBD0BFF34F8F0649174B86
:10C68000CA6802F4E0621343CB60BFF34F8F00BF70
:10C69000FDE700BF3001001000ED00E09811002020
:10C6A0000090D00300C000403401001090C701008A
:10C6B0008C5600404881030090C7010000F0004004
:10C6C00090C70100E40E00405802001090C701001E
:10C6D0004096024088C7010000E001400400FA05CE
:10C6E00008B5074B044613B10021AFF30080054B9A
:10C6F0001868836A03B19847204600F031F800BFFC
:10C700000000000098C7010070B50D4D0D4C641B72
:10C71000A4100026A64209D10B4D0C4C00F022F8C3
:10C72000641BA4100026A64205D170BD55F8043B39
:10C7300098470136EEE755F8043B98470136F2E793
:10C74000FC110020FC110020FC1100200012002030
:10C7500002440346934200D1704703F8011BF9E7F6
:10C76000FEE700BFF8B500BFF8BC08BC9E467047A6
:10C77000F8B500BFF8BC08BC9E4670470608290CF7
:10C780000338FDD8704700000000000001010000E0
:10C7900001000000000000009C11002000000000CB
:08C7A000A0FAFF7F0100000078
:10C7A8000090D0030000000000000000000000001E
:10C7B8000000000000000000000000000000000071
:10C7C8000000000000000000000000000000000061
:10C7D8000000000000000000000000000000000051
:10C7E8000000000000000000000000000000000041
:10C7F8000000000000000000000000000000000031
:0CC808000000000025C2010001C2010078
:040000031000C2BD6A
:00000001FF
